:020000040000FA
:0400000080317928AA
:040004000034003490
:1000800020000B19572020000B1A53200B118B1046
:10009000200091184F2091100430F2000900F10A5D
:1000A0007119F101080021002630950008000310A5
:1000B00021008D358D0A8D1E6E20200003148901CC
:1000C00070077107F23B031C6A20732022008C002A
:1000D000F00A0800F2098901720708002100FD30CA
:1000E0008D00F00108000B000634B3349734C63499
:1000F000FD34210058309B00990023008C01210021
:100100008C0123008D01200000308C002200003083
:100110008D000430F000FF30F300F4000430732051
:1001200022008C00003021008D00F40B9528F30B89
:100130009528F0012100FE308D000430F200F0011E
:100140002100503095002000F0308B00210021006C
:10015000911420007F309C00200080309B00000024
:02016000AF28C6
:020000040001F9
:02000E00E43FCD
:02001000FF3FB0
:00000001FF
