:020000040000FA
:0400000080316928BA
:040004000034003490
:1000800020000B1946200B118B10090021008D3523
:100090008D0A8D1E5C202000031489017007F10772
:1000A000F23B031C5820642022008C00F00A080058
:1000B000F2098901720708002100FD308D00F0016E
:1000C000F10A711DF10108000B000634B3349734B6
:1000D000C6342100503099002100C0309500230023
:1000E0008C0121008C0123008D01200000308C0048
:1000F000220000308D002000B0308B002100103035
:0C0100008D000430F200F00100008428A3
:020000040001F9
:02000E00E43FCD
:02001000FF3FB0
:00000001FF
